:020000040800F2
:100000000080002015040008510200085702000873
:100010005D02000863020008690200080000000099
:100020000000000000000000000000006F02000857
:1000300075020008000000007B0200088102000831
:10004000870200088D020008930200089902000848
:100050009F020008A5020008AB020008B1020008D8
:10006000B7020008BD020008C3020008C902000868
:10007000CF020008D5020008DB020008E1020008F8
:10008000E7020008ED020008F3020008F902000888
:10009000FF020008050300080B0300081103000815
:1000A000170300081D0300082303000829030008A4
:1000B0002F030008350300083B0300084103000834
:1000C000470300084D0300085303000859030008C4
:1000D0005F030008650300086B0300087103000854
:1000E000770300087D0300088303000889030008E4
:1000F0008F030008950300089B030008A103000874
:10010000000000000000000000000000A70300083D
:10011000AD030008B3030008B9030008BF030008DB
:10012000C5030008CB030008D1030008D70300086B
:10013000DD030008E30300080000000000000000E9
:10014000E9030008EF030008F503000800000000C1
:10015000000000000000000000000000000000009F
:100160000000000000000000FB030008010400087C
:10017000070400080000000000000000000000006C
:08018000000000000D0400085E
:1001880080B400AF064BD3F88830054A43F47003B7
:10019800C2F8883000BFBD465DF8047B704700BFD9
:1001A80000ED00E080B500AF00F002F8FEE70000C7
:1001B80080B586B000AF72B600BF00237B6110E047
:1001C8001D4A7B6920334FF0FF3142F823101A4A49
:1001D8007B6960334FF0FF3142F823107B690133AC
:1001E8007B617B69072BEBD9144B00221A60134BF8
:1001F80000225A60114B00229A60114B1B681B6841
:100208003B610F4B1B6804331B68FB603B697B60D9
:100218007B6883F3088800BF0A4A094B1B68936010
:10022800BFF34F8F00BFBFF36F8F00BFFB68BB608A
:10023800BB689847FEE700BF00E100E010E000E07F
:100248000000000800ED00E080B400AFFEE780B4D5
:1002580000AFFEE780B400AFFEE780B400AFFEE772
:1002680080B400AFFEE780B400AFFEE780B400AF13
:10027800FEE780B400AFFEE780B400AFFEE780B4CD
:1002880000AFFEE780B400AFFEE780B400AFFEE742
:1002980080B400AFFEE780B400AFFEE780B400AFE3
:1002A800FEE780B400AFFEE780B400AFFEE780B49D
:1002B80000AFFEE780B400AFFEE780B400AFFEE712
:1002C80080B400AFFEE780B400AFFEE780B400AFB3
:1002D800FEE780B400AFFEE780B400AFFEE780B46D
:1002E80000AFFEE780B400AFFEE780B400AFFEE7E2
:1002F80080B400AFFEE780B400AFFEE780B400AF83
:10030800FEE780B400AFFEE780B400AFFEE780B43C
:1003180000AFFEE780B400AFFEE780B400AFFEE7B1
:1003280080B400AFFEE780B400AFFEE780B400AF52
:10033800FEE780B400AFFEE780B400AFFEE780B40C
:1003480000AFFEE780B400AFFEE780B400AFFEE781
:1003580080B400AFFEE780B400AFFEE780B400AF22
:10036800FEE780B400AFFEE780B400AFFEE780B4DC
:1003780000AFFEE780B400AFFEE780B400AFFEE751
:1003880080B400AFFEE780B400AFFEE780B400AFF2
:10039800FEE780B400AFFEE780B400AFFEE780B4AC
:1003A80000AFFEE780B400AFFEE780B400AFFEE721
:1003B80080B400AFFEE780B400AFFEE780B400AFC2
:1003C800FEE780B400AFFEE780B400AFFEE780B47C
:1003D80000AFFEE780B400AFFEE780B400AFFEE7F1
:1003E80080B400AFFEE780B400AFFEE780B400AF92
:1003F800FEE780B400AFFEE780B400AFFEE780B44C
:1004080000AFFEE780B400AFFEE70000DFF834D0AD
:10041800FFF7B6FE0C480D490D4A002302E0D458F8
:10042800C4500433C4188C42F9D30A4A0A4C002336
:1004380001E013600432A242FBD300F01DF8FFF77D
:10044800B1FEFEE700800020000000200000002030
:10045800C8040008000000200000002080B400AF9D
:1004680000BFBD465DF8047B704780B400AF00BF95
:10047800BD465DF8047B704770B50D4E0D4D761B7B
:10048800B61006D0002455F8043B01349847A6421C
:10049800F9D1094E094D761BFFF7E0FFB61006D0DB
:1004A800002455F8043B01349847A642F9D170BDA1
:1004B800C8040008C8040008C8040008C8040008E4
:0400000508000415D6
:00000001FF
